{
    "_format": "hh-sol-artifact-1",
    "contractName": "EtherStake",
    "sourceName": "contracts/EtherStake.sol",
    "abi": [
        {
            "anonymous": false,
            "inputs": [
                {
                    "indexed": true,
                    "internalType": "address",
                    "name": "initiator",
                    "type": "address"
                },
                {
                    "indexed": false,
                    "internalType": "bytes32",
                    "name": "role",
                    "type": "bytes32"
                },
                {
                    "indexed": false,
                    "internalType": "string",
                    "name": "message",
                    "type": "string"
                },
                {
                    "indexed": true,
                    "internalType": "address",
                    "name": "beneficiary",
                    "type": "address"
                },
                {
                    "indexed": false,
                    "internalType": "uint256",
                    "name": "amount",
                    "type": "uint256"
                }
            ],
            "name": "Action",
            "type": "event"
        },
        {
            "anonymous": false,
            "inputs": [
                {
                    "indexed": true,
                    "internalType": "bytes32",
                    "name": "role",
                    "type": "bytes32"
                },
                {
                    "indexed": true,
                    "internalType": "bytes32",
                    "name": "previousAdminRole",
                    "type": "bytes32"
                },
                {
                    "indexed": true,
                    "internalType": "bytes32",
                    "name": "newAdminRole",
                    "type": "bytes32"
                }
            ],
            "name": "RoleAdminChanged",
            "type": "event"
        },
        {
            "anonymous": false,
            "inputs": [
                {
                    "indexed": true,
                    "internalType": "bytes32",
                    "name": "role",
                    "type": "bytes32"
                },
                {
                    "indexed": true,
                    "internalType": "address",
                    "name": "account",
                    "type": "address"
                },
                {
                    "indexed": true,
                    "internalType": "address",
                    "name": "sender",
                    "type": "address"
                }
            ],
            "name": "RoleGranted",
            "type": "event"
        },
        {
            "anonymous": false,
            "inputs": [
                {
                    "indexed": true,
                    "internalType": "bytes32",
                    "name": "role",
                    "type": "bytes32"
                },
                {
                    "indexed": true,
                    "internalType": "address",
                    "name": "account",
                    "type": "address"
                },
                {
                    "indexed": true,
                    "internalType": "address",
                    "name": "sender",
                    "type": "address"
                }
            ],
            "name": "RoleRevoked",
            "type": "event"
        },
        {
            "inputs": [],
            "name": "DEFAULT_ADMIN_ROLE",
            "outputs": [
                {
                    "internalType": "bytes32",
                    "name": "",
                    "type": "bytes32"
                }
            ],
            "stateMutability": "view",
            "type": "function"
        },
        {
            "inputs": [],
            "name": "contribute",
            "outputs": [
                {
                    "internalType": "uint256",
                    "name": "",
                    "type": "uint256"
                }
            ],
            "stateMutability": "payable",
            "type": "function"
        },
        {
            "inputs": [
                {
                    "internalType": "string",
                    "name": "title",
                    "type": "string"
                },
                {
                    "internalType": "string",
                    "name": "description",
                    "type": "string"
                },
                {
                    "internalType": "address",
                    "name": "beneficiary",
                    "type": "address"
                },
                {
                    "internalType": "uint256",
                    "name": "amount",
                    "type": "uint256"
                }
            ],
            "name": "createProposal",
            "outputs": [
                {
                    "components": [
                        {
                            "internalType": "uint256",
                            "name": "id",
                            "type": "uint256"
                        },
                        {
                            "internalType": "uint256",
                            "name": "amount",
                            "type": "uint256"
                        },
                        {
                            "internalType": "uint256",
                            "name": "duration",
                            "type": "uint256"
                        },
                        {
                            "internalType": "uint256",
                            "name": "upvotes",
                            "type": "uint256"
                        },
                        {
                            "internalType": "uint256",
                            "name": "downvotes",
                            "type": "uint256"
                        },
                        {
                            "internalType": "string",
                            "name": "title",
                            "type": "string"
                        },
                        {
                            "internalType": "string",
                            "name": "description",
                            "type": "string"
                        },
                        {
                            "internalType": "bool",
                            "name": "passed",
                            "type": "bool"
                        },
                        {
                            "internalType": "bool",
                            "name": "paid",
                            "type": "bool"
                        },
                        {
                            "internalType": "address payable",
                            "name": "beneficiary",
                            "type": "address"
                        },
                        {
                            "internalType": "address",
                            "name": "proposer",
                            "type": "address"
                        },
                        {
                            "internalType": "address",
                            "name": "executor",
                            "type": "address"
                        }
                    ],
                    "internalType": "struct EtherStake.ProposalStruct",
                    "name": "",
                    "type": "tuple"
                }
            ],
            "stateMutability": "nonpayable",
            "type": "function"
        },
        {
            "inputs": [],
            "name": "daoBalance",
            "outputs": [
                {
                    "internalType": "uint256",
                    "name": "",
                    "type": "uint256"
                }
            ],
            "stateMutability": "view",
            "type": "function"
        },
        {
            "inputs": [],
            "name": "getBalance",
            "outputs": [
                {
                    "internalType": "uint256",
                    "name": "",
                    "type": "uint256"
                }
            ],
            "stateMutability": "view",
            "type": "function"
        },
        {
            "inputs": [],
            "name": "getContributorBalance",
            "outputs": [
                {
                    "internalType": "uint256",
                    "name": "",
                    "type": "uint256"
                }
            ],
            "stateMutability": "view",
            "type": "function"
        },
        {
            "inputs": [
                {
                    "internalType": "uint256",
                    "name": "proposalId",
                    "type": "uint256"
                }
            ],
            "name": "getProposal",
            "outputs": [
                {
                    "components": [
                        {
                            "internalType": "uint256",
                            "name": "id",
                            "type": "uint256"
                        },
                        {
                            "internalType": "uint256",
                            "name": "amount",
                            "type": "uint256"
                        },
                        {
                            "internalType": "uint256",
                            "name": "duration",
                            "type": "uint256"
                        },
                        {
                            "internalType": "uint256",
                            "name": "upvotes",
                            "type": "uint256"
                        },
                        {
                            "internalType": "uint256",
                            "name": "downvotes",
                            "type": "uint256"
                        },
                        {
                            "internalType": "string",
                            "name": "title",
                            "type": "string"
                        },
                        {
                            "internalType": "string",
                            "name": "description",
                            "type": "string"
                        },
                        {
                            "internalType": "bool",
                            "name": "passed",
                            "type": "bool"
                        },
                        {
                            "internalType": "bool",
                            "name": "paid",
                            "type": "bool"
                        },
                        {
                            "internalType": "address payable",
                            "name": "beneficiary",
                            "type": "address"
                        },
                        {
                            "internalType": "address",
                            "name": "proposer",
                            "type": "address"
                        },
                        {
                            "internalType": "address",
                            "name": "executor",
                            "type": "address"
                        }
                    ],
                    "internalType": "struct EtherStake.ProposalStruct",
                    "name": "",
                    "type": "tuple"
                }
            ],
            "stateMutability": "view",
            "type": "function"
        },
        {
            "inputs": [],
            "name": "getProposals",
            "outputs": [
                {
                    "components": [
                        {
                            "internalType": "uint256",
                            "name": "id",
                            "type": "uint256"
                        },
                        {
                            "internalType": "uint256",
                            "name": "amount",
                            "type": "uint256"
                        },
                        {
                            "internalType": "uint256",
                            "name": "duration",
                            "type": "uint256"
                        },
                        {
                            "internalType": "uint256",
                            "name": "upvotes",
                            "type": "uint256"
                        },
                        {
                            "internalType": "uint256",
                            "name": "downvotes",
                            "type": "uint256"
                        },
                        {
                            "internalType": "string",
                            "name": "title",
                            "type": "string"
                        },
                        {
                            "internalType": "string",
                            "name": "description",
                            "type": "string"
                        },
                        {
                            "internalType": "bool",
                            "name": "passed",
                            "type": "bool"
                        },
                        {
                            "internalType": "bool",
                            "name": "paid",
                            "type": "bool"
                        },
                        {
                            "internalType": "address payable",
                            "name": "beneficiary",
                            "type": "address"
                        },
                        {
                            "internalType": "address",
                            "name": "proposer",
                            "type": "address"
                        },
                        {
                            "internalType": "address",
                            "name": "executor",
                            "type": "address"
                        }
                    ],
                    "internalType": "struct EtherStake.ProposalStruct[]",
                    "name": "props",
                    "type": "tuple[]"
                }
            ],
            "stateMutability": "view",
            "type": "function"
        },
        {
            "inputs": [
                {
                    "internalType": "bytes32",
                    "name": "role",
                    "type": "bytes32"
                }
            ],
            "name": "getRoleAdmin",
            "outputs": [
                {
                    "internalType": "bytes32",
                    "name": "",
                    "type": "bytes32"
                }
            ],
            "stateMutability": "view",
            "type": "function"
        },
        {
            "inputs": [],
            "name": "getStakeholderBalance",
            "outputs": [
                {
                    "internalType": "uint256",
                    "name": "",
                    "type": "uint256"
                }
            ],
            "stateMutability": "view",
            "type": "function"
        },
        {
            "inputs": [],
            "name": "getStakeholderVotes",
            "outputs": [
                {
                    "internalType": "uint256[]",
                    "name": "",
                    "type": "uint256[]"
                }
            ],
            "stateMutability": "view",
            "type": "function"
        },
        {
            "inputs": [
                {
                    "internalType": "uint256",
                    "name": "proposalId",
                    "type": "uint256"
                }
            ],
            "name": "getVotesOf",
            "outputs": [
                {
                    "components": [
                        {
                            "internalType": "address",
                            "name": "voter",
                            "type": "address"
                        },
                        {
                            "internalType": "uint256",
                            "name": "timestamp",
                            "type": "uint256"
                        },
                        {
                            "internalType": "bool",
                            "name": "choosen",
                            "type": "bool"
                        }
                    ],
                    "internalType": "struct EtherStake.VotedStruct[]",
                    "name": "",
                    "type": "tuple[]"
                }
            ],
            "stateMutability": "view",
            "type": "function"
        },
        {
            "inputs": [
                {
                    "internalType": "bytes32",
                    "name": "role",
                    "type": "bytes32"
                },
                {
                    "internalType": "address",
                    "name": "account",
                    "type": "address"
                }
            ],
            "name": "grantRole",
            "outputs": [],
            "stateMutability": "nonpayable",
            "type": "function"
        },
        {
            "inputs": [
                {
                    "internalType": "bytes32",
                    "name": "role",
                    "type": "bytes32"
                },
                {
                    "internalType": "address",
                    "name": "account",
                    "type": "address"
                }
            ],
            "name": "hasRole",
            "outputs": [
                {
                    "internalType": "bool",
                    "name": "",
                    "type": "bool"
                }
            ],
            "stateMutability": "view",
            "type": "function"
        },
        {
            "inputs": [],
            "name": "isContributor",
            "outputs": [
                {
                    "internalType": "bool",
                    "name": "",
                    "type": "bool"
                }
            ],
            "stateMutability": "view",
            "type": "function"
        },
        {
            "inputs": [],
            "name": "isStakeholder",
            "outputs": [
                {
                    "internalType": "bool",
                    "name": "",
                    "type": "bool"
                }
            ],
            "stateMutability": "view",
            "type": "function"
        },
        {
            "inputs": [
                {
                    "internalType": "uint256",
                    "name": "proposalId",
                    "type": "uint256"
                }
            ],
            "name": "payBeneficiary",
            "outputs": [
                {
                    "internalType": "uint256",
                    "name": "",
                    "type": "uint256"
                }
            ],
            "stateMutability": "nonpayable",
            "type": "function"
        },
        {
            "inputs": [
                {
                    "internalType": "uint256",
                    "name": "proposalId",
                    "type": "uint256"
                },
                {
                    "internalType": "bool",
                    "name": "choosen",
                    "type": "bool"
                }
            ],
            "name": "performVote",
            "outputs": [
                {
                    "components": [
                        {
                            "internalType": "address",
                            "name": "voter",
                            "type": "address"
                        },
                        {
                            "internalType": "uint256",
                            "name": "timestamp",
                            "type": "uint256"
                        },
                        {
                            "internalType": "bool",
                            "name": "choosen",
                            "type": "bool"
                        }
                    ],
                    "internalType": "struct EtherStake.VotedStruct",
                    "name": "",
                    "type": "tuple"
                }
            ],
            "stateMutability": "nonpayable",
            "type": "function"
        },
        {
            "inputs": [
                {
                    "internalType": "bytes32",
                    "name": "role",
                    "type": "bytes32"
                },
                {
                    "internalType": "address",
                    "name": "account",
                    "type": "address"
                }
            ],
            "name": "renounceRole",
            "outputs": [],
            "stateMutability": "nonpayable",
            "type": "function"
        },
        {
            "inputs": [
                {
                    "internalType": "bytes32",
                    "name": "role",
                    "type": "bytes32"
                },
                {
                    "internalType": "address",
                    "name": "account",
                    "type": "address"
                }
            ],
            "name": "revokeRole",
            "outputs": [],
            "stateMutability": "nonpayable",
            "type": "function"
        },
        {
            "inputs": [
                {
                    "internalType": "bytes4",
                    "name": "interfaceId",
                    "type": "bytes4"
                }
            ],
            "name": "supportsInterface",
            "outputs": [
                {
                    "internalType": "bool",
                    "name": "",
                    "type": "bool"
                }
            ],
            "stateMutability": "view",
            "type": "function"
        }
    ],
    "bytecode": "0x6101006040527fa0bb1af1c90aa52ed052b92714ff0087008cc720049bf1af77cca2600b31e80c6080908152507ff4bb84e1768dd286358a736d195a0b228621173f655a73b89bf8b191ed0ba07d60a090815250670de0b6b3a764000060c09081525061012c63ffffffff1660e09063ffffffff1681525034801561008357600080fd5b50600160008190555060805160a05160c05160e05161413e610119600039600061114501526000611dd80152600081816105ea0152818161087b01528181610f1501528181610fe90152818161155d0152818161169c0152818161192901528181611d5e01528181611e9c015261208e0152600081816109f4015281816111ce01528181611ec60152611f4b015261413e6000f3fe60806040526004361061012a5760003560e01c80637cdc2eb7116100ab578063bd9728161161006f578063bd9728161461042e578063c02146ac14610459578063c7f758a814610484578063d547741f146104c1578063d6cc8016146104ea578063d7bb99ba146105155761012a565b80637cdc2eb71461032157806391d148541461035e578063a217fddf1461039b578063a22f1db7146103c6578063b31f111c146103f15761012a565b806336568abe116100f257806336568abe1461023a5780633cdb48c21461026357806362564c481461028e57806369a136dc146102b95780636a80d84d146102f65761012a565b806301ffc9a71461012f578063119c37c81461016c57806312065fe0146101a9578063248a9ca3146101d45780632f2ff15d14610211575b600080fd5b34801561013b57600080fd5b50610156600480360381019061015191906129f7565b610533565b6040516101639190612a3f565b60405180910390f35b34801561017857600080fd5b50610193600480360381019061018e9190612a90565b6105ad565b6040516101a09190612acc565b60405180910390f35b3480156101b557600080fd5b506101be6108c9565b6040516101cb9190612acc565b60405180910390f35b3480156101e057600080fd5b506101fb60048036038101906101f69190612b1d565b610910565b6040516102089190612b59565b60405180910390f35b34801561021d57600080fd5b5061023860048036038101906102339190612bd2565b610930565b005b34801561024657600080fd5b50610261600480360381019061025c9190612bd2565b610951565b005b34801561026f57600080fd5b506102786109d4565b6040516102859190612acc565b60405180910390f35b34801561029a57600080fd5b506102a3610aa2565b6040516102b09190612ebd565b60405180910390f35b3480156102c557600080fd5b506102e060048036038101906102db9190612a90565b610deb565b6040516102ed9190612fd0565b60405180910390f35b34801561030257600080fd5b5061030b610ed8565b6040516103189190612acc565b60405180910390f35b34801561032d57600080fd5b5061034860048036038101906103439190613057565b610fc3565b6040516103559190613209565b60405180910390f35b34801561036a57600080fd5b5061038560048036038101906103809190612bd2565b6114ae565b6040516103929190612a3f565b60405180910390f35b3480156103a757600080fd5b506103b0611519565b6040516103bd9190612b59565b60405180910390f35b3480156103d257600080fd5b506103db611520565b6040516103e891906132da565b60405180910390f35b3480156103fd57600080fd5b5061041860048036038101906104139190613328565b611659565b60405161042591906133aa565b60405180910390f35b34801561043a57600080fd5b506104436119a0565b6040516104509190612acc565b60405180910390f35b34801561046557600080fd5b5061046e6119a6565b60405161047b9190612a3f565b60405180910390f35b34801561049057600080fd5b506104ab60048036038101906104a69190612a90565b6119ef565b6040516104b89190613209565b60405180910390f35b3480156104cd57600080fd5b506104e860048036038101906104e39190612bd2565b611cab565b005b3480156104f657600080fd5b506104ff611ccc565b60405161050c9190612a3f565b60405180910390f35b61051d611d15565b60405161052a9190612acc565b60405180910390f35b60007f7965db0b000000000000000000000000000000000000000000000000000000007bffffffffffffffffffffffffffffffffffffffffffffffffffffffff1916827bffffffffffffffffffffffffffffffffffffffffffffffffffffffff191614806105a657506105a5826120cc565b5b9050919050565b60006040518060400160405280601f81526020017f556e617574686f72697a65643a205374616b65686f6c64657273206f6e6c790081525061060f7f0000000000000000000000000000000000000000000000000000000000000000336114ae565b8190610651576040517f08c379a0000000000000000000000000000000000000000000000000000000008152600401610648919061340f565b60405180910390fd5b5061065a612136565b6000600460008581526020019081526020016000209050806001015460035410156106ba576040517f08c379a00000000000000000000000000000000000000000000000000000000081526004016106b19061347d565b60405180910390fd5b8060070160019054906101000a900460ff161561070c576040517f08c379a0000000000000000000000000000000000000000000000000000000008152600401610703906134e9565b60405180910390fd5b8060040154816003015411610756576040517f08c379a000000000000000000000000000000000000000000000000000000000815260040161074d90613555565b60405180910390fd5b6107888160070160029054906101000a900473ffffffffffffffffffffffffffffffffffffffff168260010154612185565b5060018160070160016101000a81548160ff021916908315150217905550338160090160006101000a81548173ffffffffffffffffffffffffffffffffffffffff021916908373ffffffffffffffffffffffffffffffffffffffff1602179055508060010154600360008282546107ff91906135a4565b925050819055508060070160029054906101000a900473ffffffffffffffffffffffffffffffffffffffff1673ffffffffffffffffffffffffffffffffffffffff163373ffffffffffffffffffffffffffffffffffffffff167fa596782d699d74613fcbf59d33e720baabd313d6be9c95e2268f305430305eb77f000000000000000000000000000000000000000000000000000000000000000084600101546040516108ad929190613624565b60405180910390a36003549250506108c361223d565b50919050565b6000600760003373ffffffffffffffffffffffffffffffffffffffff1673ffffffffffffffffffffffffffffffffffffffff16815260200190815260200160002054905090565b600060016000838152602001908152602001600020600101549050919050565b61093982610910565b61094281612247565b61094c838361225b565b505050565b61095961233b565b73ffffffffffffffffffffffffffffffffffffffff168173ffffffffffffffffffffffffffffffffffffffff16146109c6576040517f08c379a00000000000000000000000000000000000000000000000000000000081526004016109bd906136d2565b60405180910390fd5b6109d08282612343565b5050565b60006040518060600160405280602181526020016140b960219139610a197f0000000000000000000000000000000000000000000000000000000000000000336114ae565b8190610a5b576040517f08c379a0000000000000000000000000000000000000000000000000000000008152600401610a52919061340f565b60405180910390fd5b50600760003373ffffffffffffffffffffffffffffffffffffffff1673ffffffffffffffffffffffffffffffffffffffff1681526020019081526020016000205491505090565b606060025467ffffffffffffffff811115610ac057610abf6136f2565b5b604051908082528060200260200182016040528015610af957816020015b610ae66128b5565b815260200190600190039081610ade5790505b50905060005b600254811015610de75760046000828152602001908152602001600020604051806101800160405290816000820154815260200160018201548152602001600282015481526020016003820154815260200160048201548152602001600582018054610b6a90613750565b80601f0160208091040260200160405190810160405280929190818152602001828054610b9690613750565b8015610be35780601f10610bb857610100808354040283529160200191610be3565b820191906000526020600020905b815481529060010190602001808311610bc657829003601f168201915b50505050508152602001600682018054610bfc90613750565b80601f0160208091040260200160405190810160405280929190818152602001828054610c2890613750565b8015610c755780601f10610c4a57610100808354040283529160200191610c75565b820191906000526020600020905b815481529060010190602001808311610c5857829003601f168201915b505050505081526020016007820160009054906101000a900460ff161515151581526020016007820160019054906101000a900460ff161515151581526020016007820160029054906101000a900473ffffffffffffffffffffffffffffffffffffffff1673ffffffffffffffffffffffffffffffffffffffff1673ffffffffffffffffffffffffffffffffffffffff1681526020016008820160009054906101000a900473ffffffffffffffffffffffffffffffffffffffff1673ffffffffffffffffffffffffffffffffffffffff1673ffffffffffffffffffffffffffffffffffffffff1681526020016009820160009054906101000a900473ffffffffffffffffffffffffffffffffffffffff1673ffffffffffffffffffffffffffffffffffffffff1673ffffffffffffffffffffffffffffffffffffffff1681525050828281518110610dc957610dc8613781565b5b60200260200101819052508080610ddf906137b0565b915050610aff565b5090565b606060066000838152602001908152602001600020805480602002602001604051908101604052809291908181526020016000905b82821015610ecd57838290600052602060002090600302016040518060600160405290816000820160009054906101000a900473ffffffffffffffffffffffffffffffffffffffff1673ffffffffffffffffffffffffffffffffffffffff1673ffffffffffffffffffffffffffffffffffffffff168152602001600182015481526020016002820160009054906101000a900460ff16151515158152505081526020019060010190610e20565b505050509050919050565b60006040518060400160405280601f81526020017f556e617574686f72697a65643a206e6f742061207374616b65686f6c64657200815250610f3a7f0000000000000000000000000000000000000000000000000000000000000000336114ae565b8190610f7c576040517f08c379a0000000000000000000000000000000000000000000000000000000008152600401610f73919061340f565b60405180910390fd5b50600860003373ffffffffffffffffffffffffffffffffffffffff1673ffffffffffffffffffffffffffffffffffffffff1681526020019081526020016000205491505090565b610fcb6128b5565b6040518060600160405280602f81526020016140da602f913961100e7f0000000000000000000000000000000000000000000000000000000000000000336114ae565b8190611050576040517f08c379a0000000000000000000000000000000000000000000000000000000008152600401611047919061340f565b60405180910390fd5b50600060026000815480929190611066906137b0565b9190505590506000600460008381526020019081526020016000209050818160000181905550338160080160006101000a81548173ffffffffffffffffffffffffffffffffffffffff021916908373ffffffffffffffffffffffffffffffffffffffff16021790555089898260050191826110e29291906139af565b5087878260060191826110f69291906139af565b50858160070160026101000a81548173ffffffffffffffffffffffffffffffffffffffff021916908373ffffffffffffffffffffffffffffffffffffffff1602179055508481600101819055507f000000000000000000000000000000000000000000000000000000000000000063ffffffff16426111759190613a7f565b81600201819055508573ffffffffffffffffffffffffffffffffffffffff163373ffffffffffffffffffffffffffffffffffffffff167fa596782d699d74613fcbf59d33e720baabd313d6be9c95e2268f305430305eb77f0000000000000000000000000000000000000000000000000000000000000000886040516111fc929190613aff565b60405180910390a38060405180610180016040529081600082015481526020016001820154815260200160028201548152602001600382015481526020016004820154815260200160058201805461125390613750565b80601f016020809104026020016040519081016040528092919081815260200182805461127f90613750565b80156112cc5780601f106112a1576101008083540402835291602001916112cc565b820191906000526020600020905b8154815290600101906020018083116112af57829003601f168201915b505050505081526020016006820180546112e590613750565b80601f016020809104026020016040519081016040528092919081815260200182805461131190613750565b801561135e5780601f106113335761010080835404028352916020019161135e565b820191906000526020600020905b81548152906001019060200180831161134157829003601f168201915b505050505081526020016007820160009054906101000a900460ff161515151581526020016007820160019054906101000a900460ff161515151581526020016007820160029054906101000a900473ffffffffffffffffffffffffffffffffffffffff1673ffffffffffffffffffffffffffffffffffffffff1673ffffffffffffffffffffffffffffffffffffffff1681526020016008820160009054906101000a900473ffffffffffffffffffffffffffffffffffffffff1673ffffffffffffffffffffffffffffffffffffffff1673ffffffffffffffffffffffffffffffffffffffff1681526020016009820160009054906101000a900473ffffffffffffffffffffffffffffffffffffffff1673ffffffffffffffffffffffffffffffffffffffff1673ffffffffffffffffffffffffffffffffffffffff168152505093505050509695505050505050565b60006001600084815260200190815260200160002060000160008373ffffffffffffffffffffffffffffffffffffffff1673ffffffffffffffffffffffffffffffffffffffff16815260200190815260200160002060009054906101000a900460ff16905092915050565b6000801b81565b60606040518060400160405280601f81526020017f556e617574686f72697a65643a206e6f742061207374616b65686f6c646572008152506115827f0000000000000000000000000000000000000000000000000000000000000000336114ae565b81906115c4576040517f08c379a00000000000000000000000000000000000000000000000000000000081526004016115bb919061340f565b60405180910390fd5b50600560003373ffffffffffffffffffffffffffffffffffffffff1673ffffffffffffffffffffffffffffffffffffffff16815260200190815260200160002080548060200260200160405190810160405280929190818152602001828054801561164e57602002820191906000526020600020905b81548152602001906001019080831161163a575b505050505091505090565b61166161295c565b6040518060400160405280601f81526020017f556e617574686f72697a65643a205374616b65686f6c64657273206f6e6c79008152506116c17f0000000000000000000000000000000000000000000000000000000000000000336114ae565b8190611703576040517f08c379a00000000000000000000000000000000000000000000000000000000081526004016116fa919061340f565b60405180910390fd5b50600060046000868152602001908152602001600020905061172481612425565b83156117495780600301600081548092919061173f906137b0565b9190505550611764565b80600401600081548092919061175e906137b0565b91905055505b600560003373ffffffffffffffffffffffffffffffffffffffff1673ffffffffffffffffffffffffffffffffffffffff16815260200190815260200160002081600001549080600181540180825580915050600190039060005260206000200160009091909190915055600660008260000154815260200190815260200160002060405180606001604052803373ffffffffffffffffffffffffffffffffffffffff168152602001428152602001861515815250908060018154018082558091505060019003906000526020600020906003020160009091909190915060008201518160000160006101000a81548173ffffffffffffffffffffffffffffffffffffffff021916908373ffffffffffffffffffffffffffffffffffffffff1602179055506020820151816001015560408201518160020160006101000a81548160ff02191690831515021790555050508060070160029054906101000a900473ffffffffffffffffffffffffffffffffffffffff1673ffffffffffffffffffffffffffffffffffffffff163373ffffffffffffffffffffffffffffffffffffffff167fa596782d699d74613fcbf59d33e720baabd313d6be9c95e2268f305430305eb77f0000000000000000000000000000000000000000000000000000000000000000846001015460405161195b929190613b87565b60405180910390a360405180606001604052803373ffffffffffffffffffffffffffffffffffffffff1681526020014281526020018515158152509250505092915050565b60035481565b600080600860003373ffffffffffffffffffffffffffffffffffffffff1673ffffffffffffffffffffffffffffffffffffffff1681526020019081526020016000205411905090565b6119f76128b5565b60046000838152602001908152602001600020604051806101800160405290816000820154815260200160018201548152602001600282015481526020016003820154815260200160048201548152602001600582018054611a5890613750565b80601f0160208091040260200160405190810160405280929190818152602001828054611a8490613750565b8015611ad15780601f10611aa657610100808354040283529160200191611ad1565b820191906000526020600020905b815481529060010190602001808311611ab457829003601f168201915b50505050508152602001600682018054611aea90613750565b80601f0160208091040260200160405190810160405280929190818152602001828054611b1690613750565b8015611b635780601f10611b3857610100808354040283529160200191611b63565b820191906000526020600020905b815481529060010190602001808311611b4657829003601f168201915b505050505081526020016007820160009054906101000a900460ff161515151581526020016007820160019054906101000a900460ff161515151581526020016007820160029054906101000a900473ffffffffffffffffffffffffffffffffffffffff1673ffffffffffffffffffffffffffffffffffffffff1673ffffffffffffffffffffffffffffffffffffffff1681526020016008820160009054906101000a900473ffffffffffffffffffffffffffffffffffffffff1673ffffffffffffffffffffffffffffffffffffffff1673ffffffffffffffffffffffffffffffffffffffff1681526020016009820160009054906101000a900473ffffffffffffffffffffffffffffffffffffffff1673ffffffffffffffffffffffffffffffffffffffff1673ffffffffffffffffffffffffffffffffffffffff16815250509050919050565b611cb482610910565b611cbd81612247565b611cc78383612343565b505050565b600080600760003373ffffffffffffffffffffffffffffffffffffffff1673ffffffffffffffffffffffffffffffffffffffff1681526020019081526020016000205411905090565b6000803411611d59576040517f08c379a0000000000000000000000000000000000000000000000000000000008152600401611d5090613c35565b60405180910390fd5b611d837f0000000000000000000000000000000000000000000000000000000000000000336114ae565b611f7757600034600760003373ffffffffffffffffffffffffffffffffffffffff1673ffffffffffffffffffffffffffffffffffffffff16815260200190815260200160002054611dd49190613a7f565b90507f00000000000000000000000000000000000000000000000000000000000000008110611ef05780600860003373ffffffffffffffffffffffffffffffffffffffff1673ffffffffffffffffffffffffffffffffffffffff1681526020019081526020016000208190555034600760003373ffffffffffffffffffffffffffffffffffffffff1673ffffffffffffffffffffffffffffffffffffffff1681526020019081526020016000206000828254611e909190613a7f565b92505081905550611ec17f0000000000000000000000000000000000000000000000000000000000000000336125b9565b611eeb7f0000000000000000000000000000000000000000000000000000000000000000336125b9565b611f71565b34600760003373ffffffffffffffffffffffffffffffffffffffff1673ffffffffffffffffffffffffffffffffffffffff1681526020019081526020016000206000828254611f3f9190613a7f565b92505081905550611f707f0000000000000000000000000000000000000000000000000000000000000000336125b9565b5b50612024565b34600760003373ffffffffffffffffffffffffffffffffffffffff1673ffffffffffffffffffffffffffffffffffffffff1681526020019081526020016000206000828254611fc69190613a7f565b9250508190555034600860003373ffffffffffffffffffffffffffffffffffffffff1673ffffffffffffffffffffffffffffffffffffffff168152602001908152602001600020600082825461201c9190613a7f565b925050819055505b34600360008282546120369190613a7f565b925050819055503073ffffffffffffffffffffffffffffffffffffffff163373ffffffffffffffffffffffffffffffffffffffff167fa596782d699d74613fcbf59d33e720baabd313d6be9c95e2268f305430305eb77f0000000000000000000000000000000000000000000000000000000000000000346040516120bc929190613ca1565b60405180910390a3600354905090565b60007f01ffc9a7000000000000000000000000000000000000000000000000000000007bffffffffffffffffffffffffffffffffffffffffffffffffffffffff1916827bffffffffffffffffffffffffffffffffffffffffffffffffffffffff1916149050919050565b60026000540361217b576040517f08c379a000000000000000000000000000000000000000000000000000000000815260040161217290613d29565b60405180910390fd5b6002600081905550565b6000808373ffffffffffffffffffffffffffffffffffffffff16836040516121ac90613d7a565b60006040518083038185875af1925050503d80600081146121e9576040519150601f19603f3d011682016040523d82523d6000602084013e6121ee565b606091505b5050905080612232576040517f08c379a000000000000000000000000000000000000000000000000000000000815260040161222990613ddb565b60405180910390fd5b600191505092915050565b6001600081905550565b6122588161225361233b565b6125c7565b50565b61226582826114ae565b61233757600180600084815260200190815260200160002060000160008373ffffffffffffffffffffffffffffffffffffffff1673ffffffffffffffffffffffffffffffffffffffff16815260200190815260200160002060006101000a81548160ff0219169083151502179055506122dc61233b565b73ffffffffffffffffffffffffffffffffffffffff168173ffffffffffffffffffffffffffffffffffffffff16837f2f8788117e7eff1d82e926ec794901d17c78024a50270940304540a733656f0d60405160405180910390a45b5050565b600033905090565b61234d82826114ae565b156124215760006001600084815260200190815260200160002060000160008373ffffffffffffffffffffffffffffffffffffffff1673ffffffffffffffffffffffffffffffffffffffff16815260200190815260200160002060006101000a81548160ff0219169083151502179055506123c661233b565b73ffffffffffffffffffffffffffffffffffffffff168173ffffffffffffffffffffffffffffffffffffffff16837ff6391f5c32d9c69d2a47ea670b442974b53935d1edc7fd64eb21e047a839171b60405160405180910390a45b5050565b8060070160009054906101000a900460ff1680612446575042816002015411155b156124a35760018160070160006101000a81548160ff0219169083151502179055506040517f08c379a000000000000000000000000000000000000000000000000000000000815260040161249a90613e47565b60405180910390fd5b6000600560003373ffffffffffffffffffffffffffffffffffffffff1673ffffffffffffffffffffffffffffffffffffffff16815260200190815260200160002080548060200260200160405190810160405280929190818152602001828054801561252e57602002820191906000526020600020905b81548152602001906001019080831161251a575b5050505050905060005b81518110156125b45781818151811061255457612553613781565b5b60200260200101518360000154036125a1576040517f08c379a000000000000000000000000000000000000000000000000000000000815260040161259890613eb3565b60405180910390fd5b80806125ac906137b0565b915050612538565b505050565b6125c3828261225b565b5050565b6125d182826114ae565b612648576125de8161264c565b6125ec8360001c6020612679565b6040516020016125fd929190613fa7565b6040516020818303038152906040526040517f08c379a000000000000000000000000000000000000000000000000000000000815260040161263f919061340f565b60405180910390fd5b5050565b60606126728273ffffffffffffffffffffffffffffffffffffffff16601460ff16612679565b9050919050565b60606000600283600261268c9190613fe1565b6126969190613a7f565b67ffffffffffffffff8111156126af576126ae6136f2565b5b6040519080825280601f01601f1916602001820160405280156126e15781602001600182028036833780820191505090505b5090507f30000000000000000000000000000000000000000000000000000000000000008160008151811061271957612718613781565b5b60200101907effffffffffffffffffffffffffffffffffffffffffffffffffffffffffffff1916908160001a9053507f78000000000000000000000000000000000000000000000000000000000000008160018151811061277d5761277c613781565b5b60200101907effffffffffffffffffffffffffffffffffffffffffffffffffffffffffffff1916908160001a905350600060018460026127bd9190613fe1565b6127c79190613a7f565b90505b6001811115612867577f3031323334353637383961626364656600000000000000000000000000000000600f86166010811061280957612808613781565b5b1a60f81b8282815181106128205761281f613781565b5b60200101907effffffffffffffffffffffffffffffffffffffffffffffffffffffffffffff1916908160001a905350600485901c94508061286090614023565b90506127ca565b50600084146128ab576040517f08c379a00000000000000000000000000000000000000000000000000000000081526004016128a290614098565b60405180910390fd5b8091505092915050565b60405180610180016040528060008152602001600081526020016000815260200160008152602001600081526020016060815260200160608152602001600015158152602001600015158152602001600073ffffffffffffffffffffffffffffffffffffffff168152602001600073ffffffffffffffffffffffffffffffffffffffff168152602001600073ffffffffffffffffffffffffffffffffffffffff1681525090565b6040518060600160405280600073ffffffffffffffffffffffffffffffffffffffff168152602001600081526020016000151581525090565b600080fd5b600080fd5b60007fffffffff0000000000000000000000000000000000000000000000000000000082169050919050565b6129d48161299f565b81146129df57600080fd5b50565b6000813590506129f1816129cb565b92915050565b600060208284031215612a0d57612a0c612995565b5b6000612a1b848285016129e2565b91505092915050565b60008115159050919050565b612a3981612a24565b82525050565b6000602082019050612a546000830184612a30565b92915050565b6000819050919050565b612a6d81612a5a565b8114612a7857600080fd5b50565b600081359050612a8a81612a64565b92915050565b600060208284031215612aa657612aa5612995565b5b6000612ab484828501612a7b565b91505092915050565b612ac681612a5a565b82525050565b6000602082019050612ae16000830184612abd565b92915050565b6000819050919050565b612afa81612ae7565b8114612b0557600080fd5b50565b600081359050612b1781612af1565b92915050565b600060208284031215612b3357612b32612995565b5b6000612b4184828501612b08565b91505092915050565b612b5381612ae7565b82525050565b6000602082019050612b6e6000830184612b4a565b92915050565b600073ffffffffffffffffffffffffffffffffffffffff82169050919050565b6000612b9f82612b74565b9050919050565b612baf81612b94565b8114612bba57600080fd5b50565b600081359050612bcc81612ba6565b92915050565b60008060408385031215612be957612be8612995565b5b6000612bf785828601612b08565b9250506020612c0885828601612bbd565b9150509250929050565b600081519050919050565b600082825260208201905092915050565b6000819050602082019050919050565b612c4781612a5a565b82525050565b600081519050919050565b600082825260208201905092915050565b60005b83811015612c87578082015181840152602081019050612c6c565b60008484015250505050565b6000601f19601f8301169050919050565b6000612caf82612c4d565b612cb98185612c58565b9350612cc9818560208601612c69565b612cd281612c93565b840191505092915050565b612ce681612a24565b82525050565b6000612cf782612b74565b9050919050565b612d0781612cec565b82525050565b612d1681612b94565b82525050565b600061018083016000830151612d356000860182612c3e565b506020830151612d486020860182612c3e565b506040830151612d5b6040860182612c3e565b506060830151612d6e6060860182612c3e565b506080830151612d816080860182612c3e565b5060a083015184820360a0860152612d998282612ca4565b91505060c083015184820360c0860152612db38282612ca4565b91505060e0830151612dc860e0860182612cdd565b50610100830151612ddd610100860182612cdd565b50610120830151612df2610120860182612cfe565b50610140830151612e07610140860182612d0d565b50610160830151612e1c610160860182612d0d565b508091505092915050565b6000612e338383612d1c565b905092915050565b6000602082019050919050565b6000612e5382612c12565b612e5d8185612c1d565b935083602082028501612e6f85612c2e565b8060005b85811015612eab5784840389528151612e8c8582612e27565b9450612e9783612e3b565b925060208a01995050600181019050612e73565b50829750879550505050505092915050565b60006020820190508181036000830152612ed78184612e48565b905092915050565b600081519050919050565b600082825260208201905092915050565b6000819050602082019050919050565b606082016000820151612f216000850182612d0d565b506020820151612f346020850182612c3e565b506040820151612f476040850182612cdd565b50505050565b6000612f598383612f0b565b60608301905092915050565b6000602082019050919050565b6000612f7d82612edf565b612f878185612eea565b9350612f9283612efb565b8060005b83811015612fc3578151612faa8882612f4d565b9750612fb583612f65565b925050600181019050612f96565b5085935050505092915050565b60006020820190508181036000830152612fea8184612f72565b905092915050565b600080fd5b600080fd5b600080fd5b60008083601f84011261301757613016612ff2565b5b8235905067ffffffffffffffff81111561303457613033612ff7565b5b6020830191508360018202830111156130505761304f612ffc565b5b9250929050565b6000806000806000806080878903121561307457613073612995565b5b600087013567ffffffffffffffff8111156130925761309161299a565b5b61309e89828a01613001565b9650965050602087013567ffffffffffffffff8111156130c1576130c061299a565b5b6130cd89828a01613001565b945094505060406130e089828a01612bbd565b92505060606130f189828a01612a7b565b9150509295509295509295565b6000610180830160008301516131176000860182612c3e565b50602083015161312a6020860182612c3e565b50604083015161313d6040860182612c3e565b5060608301516131506060860182612c3e565b5060808301516131636080860182612c3e565b5060a083015184820360a086015261317b8282612ca4565b91505060c083015184820360c08601526131958282612ca4565b91505060e08301516131aa60e0860182612cdd565b506101008301516131bf610100860182612cdd565b506101208301516131d4610120860182612cfe565b506101408301516131e9610140860182612d0d565b506101608301516131fe610160860182612d0d565b508091505092915050565b6000602082019050818103600083015261322381846130fe565b905092915050565b600081519050919050565b600082825260208201905092915050565b6000819050602082019050919050565b60006132638383612c3e565b60208301905092915050565b6000602082019050919050565b60006132878261322b565b6132918185613236565b935061329c83613247565b8060005b838110156132cd5781516132b48882613257565b97506132bf8361326f565b9250506001810190506132a0565b5085935050505092915050565b600060208201905081810360008301526132f4818461327c565b905092915050565b61330581612a24565b811461331057600080fd5b50565b600081359050613322816132fc565b92915050565b6000806040838503121561333f5761333e612995565b5b600061334d85828601612a7b565b925050602061335e85828601613313565b9150509250929050565b60608201600082015161337e6000850182612d0d565b5060208201516133916020850182612c3e565b5060408201516133a46040850182612cdd565b50505050565b60006060820190506133bf6000830184613368565b92915050565b600082825260208201905092915050565b60006133e182612c4d565b6133eb81856133c5565b93506133fb818560208601612c69565b61340481612c93565b840191505092915050565b6000602082019050818103600083015261342981846133d6565b905092915050565b7f496e73756666696369656e742066756e64000000000000000000000000000000600082015250565b60006134676011836133c5565b915061347282613431565b602082019050919050565b600060208201905081810360008301526134968161345a565b9050919050565b7f5061796d656e742073656e74206265666f726500000000000000000000000000600082015250565b60006134d36013836133c5565b91506134de8261349d565b602082019050919050565b60006020820190508181036000830152613502816134c6565b9050919050565b7f496e73756666696369656e7420766f7465730000000000000000000000000000600082015250565b600061353f6012836133c5565b915061354a82613509565b602082019050919050565b6000602082019050818103600083015261356e81613532565b9050919050565b7f4e487b7100000000000000000000000000000000000000000000000000000000600052601160045260246000fd5b60006135af82612a5a565b91506135ba83612a5a565b92508282039050818111156135d2576135d1613575565b5b92915050565b7f5041594d454e54205452414e5346455245440000000000000000000000000000600082015250565b600061360e6012836133c5565b9150613619826135d8565b602082019050919050565b60006060820190506136396000830185612b4a565b818103602083015261364a81613601565b90506136596040830184612abd565b9392505050565b7f416363657373436f6e74726f6c3a2063616e206f6e6c792072656e6f756e636560008201527f20726f6c657320666f722073656c660000000000000000000000000000000000602082015250565b60006136bc602f836133c5565b91506136c782613660565b604082019050919050565b600060208201905081810360008301526136eb816136af565b9050919050565b7f4e487b7100000000000000000000000000000000000000000000000000000000600052604160045260246000fd5b7f4e487b7100000000000000000000000000000000000000000000000000000000600052602260045260246000fd5b6000600282049050600182168061376857607f821691505b60208210810361377b5761377a613721565b5b50919050565b7f4e487b7100000000000000000000000000000000000000000000000000000000600052603260045260246000fd5b60006137bb82612a5a565b91507fffffffffffffffffffffffffffffffffffffffffffffffffffffffffffffffff82036137ed576137ec613575565b5b600182019050919050565b600082905092915050565b60008190508160005260206000209050919050565b60006020601f8301049050919050565b600082821b905092915050565b6000600883026138657fffffffffffffffffffffffffffffffffffffffffffffffffffffffffffffffff82613828565b61386f8683613828565b95508019841693508086168417925050509392505050565b6000819050919050565b60006138ac6138a76138a284612a5a565b613887565b612a5a565b9050919050565b6000819050919050565b6138c683613891565b6138da6138d2826138b3565b848454613835565b825550505050565b600090565b6138ef6138e2565b6138fa8184846138bd565b505050565b5b8181101561391e576139136000826138e7565b600181019050613900565b5050565b601f8211156139635761393481613803565b61393d84613818565b8101602085101561394c578190505b61396061395885613818565b8301826138ff565b50505b505050565b600082821c905092915050565b600061398660001984600802613968565b1980831691505092915050565b600061399f8383613975565b9150826002028217905092915050565b6139b983836137f8565b67ffffffffffffffff8111156139d2576139d16136f2565b5b6139dc8254613750565b6139e7828285613922565b6000601f831160018114613a165760008415613a04578287013590505b613a0e8582613993565b865550613a76565b601f198416613a2486613803565b60005b82811015613a4c57848901358255600182019150602085019450602081019050613a27565b86831015613a695784890135613a65601f891682613975565b8355505b6001600288020188555050505b50505050505050565b6000613a8a82612a5a565b9150613a9583612a5a565b9250828201905080821115613aad57613aac613575565b5b92915050565b7f50524f504f53414c205241495345440000000000000000000000000000000000600082015250565b6000613ae9600f836133c5565b9150613af482613ab3565b602082019050919050565b6000606082019050613b146000830185612b4a565b8181036020830152613b2581613adc565b9050613b346040830184612abd565b9392505050565b7f50524f504f53414c20564f544500000000000000000000000000000000000000600082015250565b6000613b71600d836133c5565b9150613b7c82613b3b565b602082019050919050565b6000606082019050613b9c6000830185612b4a565b8181036020830152613bad81613b64565b9050613bbc6040830184612abd565b9392505050565b7f436f6e747269627574696e67207a65726f206973206e6f7420616c6c6f77656460008201527f2e00000000000000000000000000000000000000000000000000000000000000602082015250565b6000613c1f6021836133c5565b9150613c2a82613bc3565b604082019050919050565b60006020820190508181036000830152613c4e81613c12565b9050919050565b7f434f4e545249425554494f4e2052454345495645440000000000000000000000600082015250565b6000613c8b6015836133c5565b9150613c9682613c55565b602082019050919050565b6000606082019050613cb66000830185612b4a565b8181036020830152613cc781613c7e565b9050613cd66040830184612abd565b9392505050565b7f5265656e7472616e637947756172643a207265656e7472616e742063616c6c00600082015250565b6000613d13601f836133c5565b9150613d1e82613cdd565b602082019050919050565b60006020820190508181036000830152613d4281613d06565b9050919050565b600081905092915050565b50565b6000613d64600083613d49565b9150613d6f82613d54565b600082019050919050565b6000613d8582613d57565b9150819050919050565b7f5061796d656e74206661696c6564000000000000000000000000000000000000600082015250565b6000613dc5600e836133c5565b9150613dd082613d8f565b602082019050919050565b60006020820190508181036000830152613df481613db8565b9050919050565b7f50726f706f73616c206475726174696f6e206578706972656400000000000000600082015250565b6000613e316019836133c5565b9150613e3c82613dfb565b602082019050919050565b60006020820190508181036000830152613e6081613e24565b9050919050565b7f446f75626c6520766f74696e67206e6f7420616c6c6f77656400000000000000600082015250565b6000613e9d6019836133c5565b9150613ea882613e67565b602082019050919050565b60006020820190508181036000830152613ecc81613e90565b9050919050565b600081905092915050565b7f416363657373436f6e74726f6c3a206163636f756e7420000000000000000000600082015250565b6000613f14601783613ed3565b9150613f1f82613ede565b601782019050919050565b6000613f3582612c4d565b613f3f8185613ed3565b9350613f4f818560208601612c69565b80840191505092915050565b7f206973206d697373696e6720726f6c6520000000000000000000000000000000600082015250565b6000613f91601183613ed3565b9150613f9c82613f5b565b601182019050919050565b6000613fb282613f07565b9150613fbe8285613f2a565b9150613fc982613f84565b9150613fd58284613f2a565b91508190509392505050565b6000613fec82612a5a565b9150613ff783612a5a565b925082820261400581612a5a565b9150828204841483151761401c5761401b613575565b5b5092915050565b600061402e82612a5a565b91506000820361404157614040613575565b5b600182039050919050565b7f537472696e67733a20686578206c656e67746820696e73756666696369656e74600082015250565b60006140826020836133c5565b915061408d8261404c565b602082019050919050565b600060208201905081810360008301526140b181614075565b905091905056fe44656e6965643a2055736572206973206e6f74206120636f6e7472696275746f7250726f706f73616c204372656174696f6e20416c6c6f77656420666f72205374616b65686f6c64657273206f6e6c79a2646970667358221220cacaa72463b438489800c29b88ca7c3250bde3be7cd55e840a2c3099df9e134f64736f6c63430008120033",
    "linkReferences": {},
    "deployedLinkReferences": {}
}